:020000020000FC
:0400000010C0C1C0AB
:02001200A4C088
:100022000FE50DBF02E00EBF03E309B908E10AB90B
:1000320000E007B900EE06B9D39ADB988A98929A43
:1000420005B7026005BF0AB700740ABF09B70160AD
:1000520009BF7BD078948F9A01E605BD44275527C6
:1000620053BD0FEF04BB0AB3006F0ABB0BB3006FA3
:100072000BBBD29ADA9AA7D05F9BFDCF0CB1102F9F
:100082000537E1F0063511F10235A1F0023419F01D
:10009200BBD0BED0F0CF5DD0B3E038ECDA9AAAD0B4
:1000A200DA98A8D03A953030C9F7BA95B030A9F7A6
:1000B2004CD0F0CFB6D0BCD0D5D0EBCF102F05E2CC
:1000C200A3D0012FA1D005E29FD0E3CF349BFECF76
:1000D20001D0DFCF349804B115B103D014D006D0CB
:1000E2000895000F111F000F111F0895082F005DC2
:1000F2008BD0092F005D88D00A2F005D85D00B2F91
:10010200005D82D008950F931F932F93882799271C
:10011200AA27BB27085E134010F08395FBCF28EE79
:10012200020F23E0121F0456104010F09395FBCFEC
:1001320024E6020F0A5010F0A395FCCF2AE0020F2A
:10014200B02F0F911F912F9108950BB700640BBF31
:1001520008950BB70F7B0BBF08950F930FB70F9343
:100162001F933A95303021F4F0DF03B70E7F03BFBF
:100172001F910F910FBF0F911895442755271BC050
:100182005FEF19C00F930FB70F931F93E2DF03B70F
:10019200036003BF02B7006002BF332715B705B77C
:1001A20000FD1E7F00FD41F4116043955C5D473008
:1001B20039F3483011F353BD3CE315BF1F910F9142
:1001C2000FBF0F9118956627CC9B6F5FCD9B6E5F1B
:1001D200CE9B6C5FCF9B685F6A3008F06AE0E6E70F
:1001E200F2E06F93660FE60F6F910027F01FC8953C
:1001F20005BA08950CE411E121E02A95F1F71A9568
:10020200D9F70A95C1F708955D9BFECF0CB9089501
:100212005D9BFECF0DE00CB95D9BFECF0AE00CB9F1
:10022200089505E00EBD00E00DBD0CBDD398089504
:10023200459BFECF0CB51DB5202F2F701695079547
:1002420016950795169507955EDF50DF0EE2DCDF07
:10025200F2E0ECE8E20F2227F21FC895002DD4DF6E
:100262004598089500E00EBD00E00DBD0CBDD39A87
:10027200DB9808957E0030006D00790033005B004A
:100282005F0070007F0073004F0030303131323335
:0A0292003334353536363738383945
:00000001FF
