:020000020000FC
:0200000010C02E
:100022000FE50DBF02E00EBF0FEC09B908E10AB9F6
:10003200B99AB19803B7026003BF02B7006002BF6A
:10004200B898C09825E00AE56FD02A9512F00BD037
:10005200FACFB6F000C0B89AC09823E008EC64D09A
:100062002A9572F3FBCFB09B689408950FD06ED09F
:1000720006C09AD018D008954030C1F3FADF08952F
:100082002CD01FD036D0F8DFE894E5CFE8ECF1E0D1
:10009200C89501E0E00F0027F01F002D0B3111F091
:1000A20086D0F6CF0895E4EEF1E0C89501E0E00FC6
:1000B2000027F01F002D0B3111F079D0F6CF6BD055
:1000C200089523E0B89AC09804E62ED0B898C09854
:1000D2000AE02AD02A95B2F7089523E0B89AC09888
:1000E20005E022D0B898C09804E61ED02A95B2F74F
:1000F2000895A0E8B0E02FE0442733E01127B89A32
:10010200C09805E011D0B898C09805E00DD01695BA
:10011200B09910682FD006E407D03A9582F712956D
:100122001D932A9552F708951F931FB71F930F939C
:1001320010E0100B12BF18B7116018BF08B700FF0C
:10014200FDCF0F911F911FBF1F910895A0E8B0E04E
:1001520000E1A00F0027B01F2FE00E91E8EBF1E0C5
:10016200E00F0027F01FC895002D21D02A95AAF78D
:1001720012D0089517FD01C003C040FD0AC005C09A
:1001820040FD03C006C04795089558E145270894ED
:10019200FACF8894F8CF5D9BFECF0DE00CB95D9B42
:1001A200FECF0AE00CB9089507E001D008955D9BE7
:1001B200FECF0CB908953031323334353637383901
:1001C200414243444546596F75722064616C6C61CB
:1001D200732063686970206E756D62657220697341
:1001E2003A1B42656C6C7320636C61786F6E696E4A
:1001F200672C20736972656E7320626C6172696E1E
:1002020067203A20796F7572206368697020776180
:100212007320696E636F72726563746C79207265A4
:0A02220061642064616D6E69741B55
:00000001FF
