:020000020000FC
:0200000010C02E
:100022000FE50DBF02E00EBF0FEF04BB33270FEC4D
:1000320009B908E10AB95F9BFECF22270CB1102F44
:10004200E8E9F0E0C89501E0E00F0027F01F2395F2
:10005200002D0B3121F05D9BFECF0CB9F3CF5D9BE0
:10006200FECF1CB95D9BFECF0DE00CB95D9BFECFB0
:100072000AE00CB9ECEAF0E0105310305CF01A30F0
:100082004CF4312F3F93330FE30F3F910027F01FC2
:10009200C89505BAD0CF796F75206A7573742074CC
:1000A200797065642061203A1B007E0030006D008B
:0E00B200790033005B005F0070007F00730078
:00000001FF
