:020000020000FC
:0400000010C0E6C086
:02001200C9C063
:100022000FE50DBF02E00EBF03E309B908E10AB90B
:10003200D39ADB9800E007B900EE06B98A98929A43
:1000420005B7026005BF0AB700740ABF09B70160AD
:1000520009BFA0D078948F9A01E605BD44275527A1
:1000620053BD0FEF04BB0AB3006F0ABB0BB3006FA3
:100072000BBBD29ADA9ACCD05F9BFDCF0CB105377D
:1000820011F410D00DC0063511F445D009C0023567
:1000920011F410D005C0023411F4DBD0ECCFE8D05B
:1000A200EBD0E9CF102F05E2E3D0012FE1D005E23A
:1000B200DFD0089503D009D026D0089504E00EBD04
:1000C20000E00DBD0CBDD3980895459BFECF0CB545
:1000D2001DB516950795C02FCF70169507951695E5
:1000E2000795169507951695079532D024D00EE2FE
:1000F200BFD0F2E0E2EAEC0FCC27FC1FC895002D3E
:10010200B7D04598089500E00EBD00E00DBD0CBDCE
:10011200D39ADB980895349BFECF01D0089534988A
:1001220004B115B103D014D006D00895000F111FE9
:10013200000F111F0895082F005D9AD0092F005D4E
:1001420097D00A2F005D94D00B2F005D91D00895B7
:100152000F931F932F9388279927AA27BB27085EFF
:10016200134010F08395FBCF28EE020F23E0121FFD
:100172000456104010F09395FBCF24E6020F0A506C
:1001820010F0A395FCCF2AE0020FB02F0F911F9120
:100192002F9108950BB700640BBF08950BB70F7B27
:1001A2000BBF08950F930FB70F931F933A953030FB
:1001B20021F4F0DF03B70E7F03BF1F910F910FBF32
:1001C2000F911895442755271BC05FEF19C00F9355
:1001D2000FB70F931F93E2DF03B7036003BF02B7AA
:1001E200006002BF332715B705B700FD1E7F00FD73
:1001F20041F4116043955C5D473039F3483011F3A7
:1002020053BD3CE315BF1F910F910FBF0F9118957E
:100212006627CC9B6F5FCD9B6E5FCE9B6C5FCF9B47
:10022200685F6A3008F06AE0ECE8F2E06F93660F0C
:10023200E60F6F910027F01FC89505BA08950CE4E8
:1002420011E121E02A95F1F71A95D9F70A95C1F73C
:100252000895A4DFB3E038ECDA9AF1DFDA98EFDF41
:100262003A953030C9F7BA95B030A9F793DF0895BF
:100272005D9BFECF0CB908955D9BFECF0DE00CB9DE
:100282005D9BFECF0AE00CB908957E0030006D0040
:10029200790033005B005F0070007F0073004F0045
:1002A2003030313132333334353536363738383908
:00000001FF
