:020000020000FC
:0400000010C04BC021
:0200120033C0F9
:100022000FE50DBF02E00EBF29E00FEF04BBE8E0D1
:10003200F1E02F93220FE20F2F910027F01FC895B6
:1000420005BA8A98929AB89A05B7026005BF0AB7AC
:1000520000740ABF09B7016009BF06D07894C0983E
:1000620043D0C09A41D0FBCF0BB700640BBF0895B9
:100072000BB70F7B0BBF08950F930FB70F931F930F
:100082003A95303021F4F0DF03B70E7F03BF1F91A2
:100092000F910FBF0F9118950F930FB70F931F93E7
:1000A200E7DF03B7036003BF02B7006002BF332775
:1000B20015B705B700FD1E7F00FD81F411602A957A
:1000C200203009F429E02F93220FE20F2F9100270D
:1000D200F01FC89505BA36E0E8E0F1E015BF1F91C0
:1000E2000F910FBF0F91189578EC03D07A95E9F72D
:1000F20008954CE451E161E06A95F1F75A95D9F718
:100102004A95C1F708957E0030006D0079003300F2
:0A0112005B005F0070007F007300C7
:00000001FF
