:020000020000FC
:0200000010C02E
:100022000FE50DBF02E00EBF0FEC09B908E10AB9F6
:10003200D39ADB9804D007D00DD014D0FBCF5F9BAE
:10004200FECF0CB9089505E00EBD00E00DBD0CBD5C
:10005200D3980895459BFECF06B517B526D00AD092
:1000620045980895D39ADB9800E00EBD00E00DBDDF
:100072000CBD0895032F005D0BD0042F005D08D046
:10008200052F005D05D0062F005D02D005D0089532
:100092005D9BFECF0CB908955D9BFECF0DE00CB9C0
:1000A2005D9BFECF0AE00CB908950F931F932F9327
:1000B2003327442755276627085E134010F03395EF
:1000C200FBCF28EE020F23E0121F0456104010F05F
:1000D2004395FBCF24E6020F0A5010F05395FCCF54
:0E00E2002AE0020F602F0F911F912F910895B9
:00000001FF
