:020000020000FC
:0400000010C044C028
:0200120027C005
:100022000FE50DBF02E00EBF8A98929A05B70260F3
:1000320005BF0AB700740ABF09B7016009BF08D03B
:1000420078948F9A01E605BD3327442743BDFFCF3D
:100052000BB700640BBF08950BB70F7B0BBF08955E
:100062000F930FB70F931F932A95203021F4F0DFDF
:1000720003B70E7F03BF1F910F910FBF0F9118950A
:10008200332744271BC04FEF19C00F930FB70F93AD
:100092001F93E2DF03B7036003BF02B7006002BF32
:1000A200222715B705B700FD1E7F00FD41F4116040
:1000B20033954C5D373039F3383011F343BD26E0C8
:0C00C20015BF1F910F910FBF0F911895F3
:00000001FF
