:020000020000FC
:0200000010C02E
:100022000FE50DBF02E00EBF0FEC09B908E10AB9F6
:1000320000E007B900EE06B95F9BFECF0CB10635B2
:1000420009F0FACF349BFECF01D0F6CF349804B139
:1000520015B103D022D006D00895000F111F000F52
:10006200111F0895032F005D0BD0042F005D08D0EF
:10007200052F005D05D0062F005D02D005D0089542
:100082005D9BFECF0CB908955D9BFECF0DE00CB9D0
:100092005D9BFECF0AE00CB908950F931F932F9337
:1000A2003327442755276627085E134010F03395FF
:1000B200FBCF28EE020F23E0121F0456104010F06F
:1000C2004395FBCF24E6020F0A5010F05395FCCF64
:0E00D2002AE0020F602F0F911F912F910895C9
:00000001FF
